:020000040800F2
:10000000D0080020D10000084D2E0008A32B0008C6
:1000100000000000000000000000000000000000E0
:100020000000000000000000000000007F2F00081A
:1000300000000000000000007D2F0008A92F00082C
:10004000E3000008E3000008E3000008E300000804
:10005000E3000008E300000889120008931200087A
:10006000E3000008E3000008E3000008E3000008E4
:10007000E3000008E3000008E3000008E3000008D4
:10008000E3000008E3000008E3000008E3000008C4
:10009000E3000008E3000008E3000008E3000008B4
:1000A000E3000008E3000008E3000008B93C000892
:1000B000E3000008E3000008E30000080348854669
:1000C00000F066FD00480047553D0008D0080020BC
:1000D0000448804704480047FEE7FEE7FEE7FEE7E6
:1000E000FEE7FEE7B5320008BD000008F0B51FB41A
:1000F0000646002082B005464024019100901BE096
:10010000019922460F46304600F036F9049A059BC5
:10011000801A994110D310461946224600F01CF966
:10012000361A8F410197224601200021009F00F0DE
:1001300013F938184D4100902046641E0028DFDC7A
:10014000019B00982946324607B0F0BDD2B201E0CB
:100150000270401C491EFBD270470022F6E710B522
:1001600013460A4604461946FFF7F0FF204610BD25
:10017000CAB2401E4178401C8A4202D00029F9D1FF
:1001800000207047421C0178401C0029FBD1801AD6
:10019000704700000FB400B58DB009900B9010A906
:1001A00000200091C0430A9000200C900648069061
:1001B000064807906A4609A80F9900F0D7FB0DB0D2
:1001C00008BC04B0184700008D090008AD090008FC
:1001D000FFB50027FF4383B000205C6801909E6854
:1001E0001D46A9697F1C049888470090296A8847A2
:1001F0000028F6D10098401C0CD003204002844314
:10020000002E19DD600614D500982B2809D02D2862
:100210000FD103E00020C04307B0F0BD01208002F1
:100220000443A9697F1C04988847761E0090002E1D
:1002300002DD0098302803D00598002825D035E04D
:10024000012040020443A969761E7F1C0498884758
:100250000090002E03DD782805D0582803D005989B
:10026000002810D022E00598002801D010281DD1C8
:10027000012040028443A969761E7F1C04988847A8
:100280000090102002E0082000E00A2005900DE018
:10029000012149020C43059A0199761E5143081821
:1002A0000190A9697F1C049888470090002E05DD05
:1002B0000599009800F071F80028E9DAE9690498D6
:1002C0008847A00502D40120C043A5E7E00722D15A
:1002D000600611D56005019800D5404229680A1DC5
:1002E0002A600968220501D5087014E0220701D5AB
:1002F000088010E008600EE02868011D2960006891
:10030000210502D50199017005E02107019901D568
:10031000018000E0016038467EE770B504460029A0
:1003200003D000202022012310E0002801D000206B
:10033000C043C046C0460DE02546D5408D4205D39A
:100340000D469540641B1D46954040191546521EAA
:10035000002DF1DC214670BD10B5202A04DB0146DA
:10036000203A9140002010BD914020239C1A034662
:10037000E3401943904010BD10B5202A04DB084625
:10038000203AD040002110BD0B46D340D04020245D
:10039000A21A91400843194610BD3A2800D23038BD
:1003A000202302469A43412A01D310463738884217
:1003B00001D30020C0437047FFB50025ED4385B051
:1003C0000020009001909F685E681C46A1696D1C2A
:1003D000069888470290216A88470028F6D102983B
:1003E000401C0CD0032040028643002F19DD70060C
:1003F00014D502982B2809D02D280FD103E0002016
:10040000C04309B0F0BD012080020643A1696D1C04
:10041000069888477F1E0290002F02DD0298302840
:1004200003D00798002828D024E00120400206438A
:10043000A1696D1C7F1E069888470290002F03DD7E
:10044000782805D0582803D00798002810D011E04C
:100450000798002801D010280CD1012040028643C3
:10046000A1696D1C7F1E069888470290102000E04D
:1004700008200790C017039016E00A20F9E7012032
:10048000400206437F1E039B079A0199009800F0E3
:1004900091FB029AD3178018594101910090A169EC
:1004A0006D1C069888470290002F06DD0799029878
:1004B000FFF773FF02900028E1DAE16906988847A8
:1004C000B00502D40120C0439BE7F00710D17006AD
:1004D00010D5700505D50098019B002241429A4134
:1004E00001E0019A00992068031D2360006806C09E
:1004F000284686E72068011D21600068019A00995E
:10050000F5E7FFB5002083B0009050680190916935
:100510001446002697680498884705460C99069863
:10052000084305D009E0A169761C04988847054670
:10053000216A284688470028F5D1681C03D0019815
:10054000C00704D017E00020C04307B0F0BD20680A
:10055000011D2160006800900DE00198C00704D1E2
:10056000009805700098401C0090A169761C7F1EC1
:10057000049888470546002F1CDD681C1AD0069891
:1005800000280FD0E817C00E401941118A000699C3
:100590004009511840012A1A09680120904001427F
:1005A000DBD107E00C980028D7D1216A284688477C
:1005B0000028D2D0E169049888470C98002807D118
:1005C000002E05DD0198C00702D1009800210170BE
:1005D000A068B84204DD0C98002804D0002F02D097
:1005E0000120C043B1E73046AFE70000FFB508780F
:1005F00089B01546FF2805D0491C2D2804D00022BB
:10060000002407E000240BE00122F9E70A235C4301
:100610000419491C0878FF28F8D1002A00D0644248
:10062000002004902A7801462D2A01D02B2A0FD1D0
:100630006D1C2D2A02D00022049209E00122FBE762
:1006400000260A2233466D1C00F0B4FA38187141B6
:100650002F78FF2FF4D10C9AA218069202460A4373
:1006600004D0FF23069A9133DA4205DA0021099873
:100670000A4606C00DB0F0BD0024B74AB54D264667
:10068000079200F0B3FC029006980391002801DA6B
:10069000474200E0074639050020AF4A001C51419F
:1006A0000191009012E0F80707D022462B46304611
:1006B000079900F08DF90646079122462B46104611
:1006C000194600F085F904460D467F10002FEAD147
:1006D0000698019B0028009A0399029806DA00F018
:1006E000DFF93246079B00F0DBF905E000F070F916
:1006F0003246079B00F06CF9049A002A02D00122CE
:10070000D2075140099A03C2B4E7FFB591B0002067
:1007100009900025ED432E209E685C681F460190DD
:10072000B9696D1C129888470090396A884700287B
:10073000F6D10098401C0AD00D20C0018443002E41
:1007400012DD00982B2809D02D280DD103E00020C0
:10075000C04315B0F0BD012080020443B9696D1C8F
:1007600012988847761E009003A9600501D52D20B8
:1007700000E02B206A461073491C0CA80F910290D0
:100780000AE0B9696D1C1298884700900120400268
:1007900004431398761E0560002E02DD0098302871
:1007A000EFD001990098884245D18020044308E0A9
:1007B0000998401E09900120400204431399681CC7
:1007C0000860B9696D1C761E129888470090302821
:1007D000EED030E00199884205D1200603D4802074
:1007E0000443761E1DE0009803F06EFB002825D020
:1007F000012149020C43009807AA0F9903323038AF
:10080000761E914208D208700F98401C0F90200667
:1008100007D50998401E03E0200602D40998401C21
:100820000990A00502D51399681C0860B9696D1C70
:10083000129888470090002ECCDC59E0002E57DD3E
:100840000098652801D0452852D1A00550D5032035
:1008500000028443B9696D1C761E12988847009087
:10086000002E0CDD2B2804D02D2808D1FF200130CC
:100870000443B9696D1C12988847761E0090E00504
:1008800001D52D2100E02B21029801700298401C17
:100890000290019025E00120400204430EA9029835
:1008A0000131761E88420ED2009802993038000637
:1008B000000E087003D10299019881420AD902986A
:1008C000401C029006E0E00501D5244801E02348E1
:1008D00040420990B9696D1C12988847009013989E
:1008E0000560002E04DD009803F0EEFA0028D2D156
:1008F000F969129888470F99FF200870029903AA96
:10090000087000200A900B900CA90AA8099BFFF719
:100910006DFEA00502D40120C0431AE72420044242
:1009200009D0E00713D138680B9A0A99031D3B6080
:10093000006806C00BE00B990A9800F065FB0146C1
:10094000E00704D13868021D3A600068016028465B
:10095000FFE60000000014400000F03FF1D8FFFF68
:1009600002681378511801601846704710B5D160BD
:10097000044951610449116200211161114600F0DE
:1009800039F910BD61090008E50B00084268002A2A
:1009900008D001680B78491C002B03D0521E06C0FA
:1009A000184670470121C160881E70474268002ABE
:1009B0000BD0C3680168002B07D183688B4204D039
:1009C000491E521C06C0002070470020C0437047DB
:1009D000F0B51FB488B00B990998002448400999D4
:1009E000C00F490049080991C0070B9900904900C0
:1009F00049080B9109990898A64608431CD00B9901
:100A00000A98084318D0099801244000420D480074
:100A1000410D099824050003000B204309900B9811
:100A20000003000B20430B9050181C494018002273
:100A300001901446104605E0002001460DB0F0BDBF
:100A4000032801DA034600E003239C46C11A0AAEDC
:100A50000AE05F0008ADED5B4F00F75B7D430027C8
:100A6000AA187C41491C5B1E6145F2DD410004ABC4
:100A70005A522104120C0A43240C401C0828DFDBC4
:100A8000019802900099704601910090059B049A8C
:100A90000799069800F057FAD0E700000DFCFFFF19
:100AA000F0B50C465C4085B0E40FE40703944C00BD
:100AB00000266408590094464908024602962243DB
:100AC00021D062460A431ED06200570D4A000E0331
:100AD0002303550D012402462C492405781B1B0BCA
:100AE000360B401823432643614600901C46501A9B
:100AF000B44103D30098401C009002E09218009883
:100B00005B41002803DA0020014605B0F0BD00205B
:100B1000012109050746864611E064461D46141B5F
:100B2000B54106D36546521BB341744607430C4397
:100B3000A646CD0740084908284392185B41054660
:100B40000D43EAD11046184313D060461946504071
:100B50007140084306D06046101AB34106D2012204
:100B6000002306E000220123DB0702E00122D2433A
:100B70005310009874460105381C6141029C039D86
:100B80000019694100F0D2F9BFE70000FD03000041
:100B9000064C0125064E05E0E36807CC2B430C3CD0
:100BA00098471034B442F7D3FFF78CFA7C4300081F
:100BB0009C43000830B5434351435C18010C130CAF
:100BC0000D465D432C1980B292B205465543514300
:100BD0000A0C09044D1962415843010C00044019E4
:100BE000514130BD10B50F21C0B2490200F028FAC2
:100BF00010BD0000F3B58DB000200A9001200B90CD
:100C0000002608460C300C460990626901210998BB
:100C10009047051E2ED0252D2DD0216A884700280B
:100C200018D06269012109989047216A88470028F5
:100C3000F7D1411E62690998904700E0761CA169CE
:100C40000D988847216A88470028F7D1E1690D98F7
:100C50008847DAE7A1690D9888470746A84201D17D
:100C6000761CD2E7E1690D9888477F1C02D10A986B
:100C7000002877D049E1002762693D463946099846
:100C800090472A280CD162690121099890470125D3
:100C900006E00A214F433F18303FEBD410200543B4
:100CA0006269012109989047014630390A2903D227
:100CB0009B498F42DEDCECE7E90600D4994F6C28B3
:100CC0000AD04C2810D0682824D06A282ED0742846
:100CD0000CD07A280AD00DE062690121099890476A
:100CE0006C2823D004211CE02020054362690121E7
:100CF00009989047A760656065284FD026DC582882
:100D000039D01ADC452849D012DC252834D04128B6
:100D1000B0D143E06269012109989047682802D068
:100D200008210D43E6E70120C002DEE70220DCE7F0
:100D3000462833D047282CD130E05B2870D061287A
:100D40002CD063286CD0642823D161E06F284FD069
:100D500009DC662822D0672820D0692826D06E2892
:100D600017D12EE0CDE070284DD073286FD07528B4
:100D70004ED078280DD154E0A1690D9888470546DA
:100D8000252800D16CE7E1690D9888476D1C00D1DA
:100D90006DE7BAE00A224CE00A2252E00120234625
:100DA0006A46C0430D99FFF7B0FCA3E028464021F6
:100DB00008436060A807234601D5002239E00022DD
:100DC0003FE0E80700D020E72068011D21600068AF
:100DD000290501D5067018E7290701D5068014E713
:100DE000A90703D5F117066041600EE706600CE71E
:100DF0002846402108436060A807234601D5082201
:100E000017E008221DE0484928460840606016E0C7
:100E10002846402108436060A8072346BCD5B9E7AF
:100E200015E02846402108436060A80707D52346FF
:100E300010220120C0430D99FFF7BEFA5AE0234665
:100E400010220120C0430D99FFF7C2F952E00021A2
:100E50000C910B460091632802D05B2807D043E039
:100E6000E80601D40120A060012000903CE0626906
:100E70000121099890475E2805D101200C90014678
:100E80006269099890472169002906D10B4601AA99
:100E90008F00491CD3510829FADB002835D021697D
:100EA00000290ED1C117C90E09184A11930001AAD1
:100EB0009A1849094901411A0120136888400343DF
:100EC000136062690121099890475D28E5D10C986B
:100ED000002808D0002001AB81005A58401CD243A2
:100EE0005A500828F8DB01AB01202246C0430D9977
:100EF000FFF707FB00280ADA401C06D10B980028F0
:100F000003D00020C0430FB0F0BD0A98FBE7E9070B
:100F100002D10A99491C0A91361800200B9074E6F8
:100F2000CCCCCC0CFFFFFF7FF1F7FFFF10B5002BFF
:100F300008DA0024401C614192185B411A4301D138
:100F40004008400010BDF0B51FB482B005460C004B
:100F500003D0084602F092FF02E002F08FFF20303B
:100F60000246009021462846FFF7F6F9049B059AB1
:100F700004460F4618431143084314D01846104343
:100F80001BD0009840210A1A18460599FFF7F4F97A
:100F900005460E46009A05990498FFF7DDF90843C7
:100FA00005D0012004E02046394607B0F0BD0020FE
:100FB000C11705430E432C43374300990E98630530
:100FC000401A7905E40A00220C43FD0A0A3002D5D2
:100FD00000200146E9E70105101969410C9C0D9DAF
:100FE00000196941FFF7A2FFDFE700000EB5054ACF
:100FF00002920022009213460192FFF7A4FF03B071
:1010000000BD000033040000CB0FDB07490010B522
:10101000490802460A4307D00A0D07240903E401E0
:10102000090B121B002A01DC002010BDC900440F6F
:101030000C43C100E018D205801800F013F810BD71
:101040007F2801D9002207E0054B42089A5CC007BF
:1010500000D112091207120F01209040084070477A
:1010600048420008002904DA401C490001D1400828
:101070004000704770B40024050C05D11024000412
:1010800002D1002921D01124050E01D1000208341B
:10109000050F01D10001241D850F01D18000A41C82
:1010A000002801DB4000641C002908D020252E1BED
:1010B0000D46F540A14000D0012129430843010617
:1010C0001B1B000ADB1D02D5002070BC7047DB052E
:1010D000181880180029F8DA401C4900F5D170BCB6
:1010E0004008400070470000F0B597B0394800272D
:1010F0000760394D2846FFF745F8044616971597BF
:10110000149713973D212846FFF732F800285ED048
:1011100003A80C303421FFF720F830480590304800
:10112000049030480390002C16D0651E02E07F1C0E
:10113000BC4211D0AF42FAD22748C05D2C28F6D16C
:1011400003AE3046FFF71EF82C213154301825210C
:10115000417064218170EAE70026029613A801908D
:1011600014A800901C4D03A916AA15AB2846FFF73A
:1011700011F828462146FEF7F0FF1B4800680028BA
:101180001DD002F067FE7D21CC002146FFF7C5F897
:10119000054602F05FFE2146FFF7BFF80A461348F6
:1011A000294602F05BFE1699159A149B139800903D
:1011B00001960FA002F052FE1BA003F035F816981E
:1011C000652804D1139A1499159801F041FE17B0BF
:1011D000F0BDC0462004002020000020673D2564AB
:1011E0006D64436641542B63080000204C430008A3
:1011F000766C5F436D6449643D25642C20766C5F9A
:10120000547970653D25642C20766C5F50313D2506
:10121000642C20766C5F50323D25642C20766C5F08
:1012200050333D25640000000D000000F0B587B08C
:101230007C4D04262846314600F08AF900240694A5
:1012400005940494039402940D48016831430160AD
:10125000006830400190012704970A4803900296E5
:10126000019802A9284600F079FA06252846394651
:10127000224600F0E3FB284600F0DCFB07B0F0BD9F
:10128000341002400000211080B5042000F050FA14
:1012900080BD10B50124A00200F04AFAE00200F07F
:1012A00047FA10BD10B5401E411E8841840301F06D
:1012B00049F90121204600F021FC01F02FF900F04E
:1012C000E5FB10BDEFF3108072B6FEE7F0B581B01C
:1012D00001F06EFE01F086FD4D4E3068002818D0FA
:1012E00002F0B8FD7D21CC002146FFF716F8054637
:1012F00002F0B0FD2146FFF710F80A46454829469E
:1013000002F0ACFD4448454902F0A8FD44A002F0BB
:101310008BFF01F0D9FC434880210124224600F0D4
:10132000E5FA414F386801281BD0022831D008283F
:101330004BD13068002848D002F08CFD7D21CD00D3
:101340002946FEF7EAFF064602F084FD2946FEF72D
:10135000E4FF0A462F4831462D4E02F07FFD39A0AA
:101360002EE03068002830D002F074FD7D21CD00E1
:101370002946FEF7D2FF064602F06CFD2946FEF72D
:10138000CCFF0A4623483146214E02F067FD2AA0D1
:1013900016E03068002818D002F05CFD7D21CD00F9
:1013A0002946FEF7BAFF064602F054FD2946FEF72D
:1013B000B4FF0A4617483146154E02F04FFD1BA0F8
:1013C00002F04CFD16A002F02FFF3C72786800205E
:1013D00038603068002818D002F03CFD7D21CC0038
:1013E0002146FEF79AFF054602F034FD2146FEF73E
:1013F00094FF0A460748294602F030FD1448074981
:1014000002F02CFD06A002F00FFF01B0F0BDC046B7
:10141000080000204C4300081E4300086A430008EF
:101420000D000000000800501400002041494E3219
:101430002057414B4521000041494E312057414B37
:101440004521000043414E322057414B45210000C9
:1014500028430008B0B5002828D0014624314A7836
:10146000022A25D1046822680E239A432260826CE6
:1014700015682D4B1D401560256801229543256098
:10148000446C1C2525401446AC40056C6C60C46C53
:10149000056D6560446D002C05D025681D402560F4
:1014A000836DC06D58604A70002004E00120B0BD1B
:1014B0000422C263012000220A70B0BDB0B525210C
:1014C000415C02292BD10146243103681A680E249D
:1014D000A2431A601C68012294431C60846C256836
:1014E000114B1D402560446C1C2525401446AC4022
:1014F000056C6C60C46C056D6560446D002C05D096
:1015000025681D402560836DC46D5C6000240C70EF
:101510004A70816B002900D088472046B0BD042165
:10152000C1630120B0BDC046FFFEFFFFB0B5044659
:1015300000F0E4F90546601C02D004480078041964
:1015400000F0DCF9401BA042FAD3B0BD0C00002033
:10155000F0B58BB0039000296FD0DC48039A82422B
:1015600001D0052000E0042000900B200007039A22
:1015700012180A20C2410192012400273D463A4632
:101580000494029126E0AB40039E3068184330601B
:101590001C20099F38400695079D85400A98C00881
:1015A00080003018016AA943069D0162B068984323
:1015B000B0607068089988437060F0689843F06084
:1015C0000299059A0846E0403F1DAD1C0832641C94
:1015D000002832D0631E0498984006460E40F1D091
:1015E0000A9308900997182305921340019904293A
:1015F00000D3009999400F2207929A4003230A9F33
:101600009F43B348C019076E069217408F42BAD164
:1016100060300246AF480168B14301604168B143A0
:101620004160AB480168B14301604168B14341602A
:101630001168069881431160A5E70BB0F0BDC04664
:1016400070B50126F10288421DD0B102884232D025
:10165000042853D12A4800680826002848D002F000
:10166000F9FB7D21CC002146FEF757FE054602F02E
:10167000F1FB2146FEF751FE0A462248294602F0B8
:10168000EDFB26A02FE01E480068002830D002F0B5
:10169000E1FB7D21CC002146FEF73FFE054602F02E
:1016A000D9FB2146FEF739FE0A461648294602F0C4
:1016B000D5FB18A017E0124800680226002817D0B2
:1016C00002F0C8FB7D21CC002146FEF726FE054630
:1016D00002F0C0FB2146FEF720FE0A4609482946D3
:1016E00002F0BCFB08A002F0B9FB09A002F09CFDCF
:1016F0000E480021017241683140016070BDC04652
:10170000080000201043000841494E323D310000DE
:101710000D00000041494E313D31000043414E3241
:101720005F52585F50696E3D310000001400002088
:10173000B0B50446074D2868204203D02C602046EF
:1017400000F00AF86868204203D06C602046FFF77A
:1017500077FFB0BD0C18024070470000F0B58BB0A9
:101760000A68002A00D1AEE003465848834201D0FF
:10177000052000E0042000900B2000071C180A2020
:10178000C4410194012000260A963746029005467E
:1017900005910393039B0FE02A434D4842600A687A
:1017A0001046089DE840B61C0A9C241D0A94083780
:1017B0006D1C002800D186E008956C1E02980994E3
:1017C000A0400240EBD0069704924D68122D17D826
:1017D0000124AC40404A144212D00324B440039A7E
:1017E0009768A7430599CC68B4403C439460EC06E5
:1017F000E40F09998C405768874327435760059940
:1018000003200790B040DC6884430A468F68B740E5
:101810002743DF6010242543C143122D10D10D460C
:101820001C210A9801400F248C400998C708BF006A
:10183000DF19386AA04314698C40294604433C628E
:101840001868084051680C46079D2C40B44004437A
:101850001C60C8001146049D069FA0D51821394080
:101860000198042800D3009888400F248C40099ADE
:1018700007998A43164989180F6EA74307430F66D5
:101880001448026805994868C40301D52A4300E05A
:10189000AA43069F0F4C22606268840301D52A4345
:1018A00000E0AA430B4C6260094A1268C40201D5E9
:1018B0002A4300E0AA43064C22606268800200D5F9
:1018C0006AE7AA4369E70BB0F0BDC04600100050BC
:1018D00000180240801802400600060042690B46CC
:1018E00093430A401104C91881617047002A02D04D
:1018F0001822815070472822815070471F48006885
:101900007047C046B0B5002817D00446006811499A
:1019100001601149016061684160A1688160FFF761
:10192000EDFF05462068C168002908D0FFF7E6FFF3
:10193000401B3028F6D90320B0BD0120B0BDE168BE
:1019400002698A4203D1084901600020B0BD0161EB
:101950000020B0BDCCCC0000555500000068024905
:10196000016000207047C046AAAA00001F48007806
:1019700002490A68101808607047C046C804002071
:10198000B0B50124200208490A6802430A60002514
:10199000284600F00BF8002801D02046B0BD00F02A
:1019A00029F82C462046B0BD00200240B0B50546BF
:1019B0000E4801780124002916D07D20C000FEF7D2
:1019C000ACFC014640480068FEF7A7FC00F0B6FDFD
:1019D000032D09D8002807D10024E04329462246D8
:1019E00000F02CF8024805602046B0BD0C00002035
:1019F0001000002080B582B00B48416801221143DD
:101A000041604168114001910199110702680A4340
:101A1000026000680840009000980320400200F037
:101A200083FD02B080BDC0463C10024080B502F08C
:101A300049F980BD80B502F055F980BD80B502F04E
:101A40005DF980BDF0B581B003256902514E326861
:101A50008A430243326001214A020024904212D19B
:101A600019480268706940050DD58F020620504361
:101A70001649FEF752FC801C401E03D071693942A2
:101A8000FAD100E02C46204601B0F0BD70B50E48FA
:101A9000016801208203EC4D2B6893432B606A6937
:101AA000002492050BD54602062048430749FEF75D
:101AB00034FC801C401E04D069693142FAD12046B2
:101AC00070BD0324204670BD0400002040420F007A
:101AD00001208003DC490A6802430A607047C0465F
:101AE000D9480168042211430323994301602A481D
:101AF00001681143016030BF7047C04610B50C4605
:101B000001214A020E4909681140002804D0002929
:101B100009D1FFF7DDFF06E0002904D0FFF7B6FF8B
:101B2000002800D010BD1C480168042291430160C8
:101B3000012C01D130BF10BD40BF20BF20BF10BD60
:101B400014700040C048016803220A4304218A43FC
:101B50000260114802680A43026030BF7047C04605
:101B600010B5421E9041B84A13680724A3431818C1
:101B7000106009480368042213430360012901D15E
:101B800030BF02E040BF20BF20BF01689143016029
:101B900010BDC0460070004010ED00E0F0B589B007
:101BA0000646012528020790B0788007A44F0695C5
:101BB00001D4002369E0049629073A46183A1068D0
:101BC0000840039006D11068084310601068084070
:101BD00008900898019202919B4E3068079908433B
:101BE0003060FFF78BFE054634680798044006D145
:101BF000FFF784FE401B0328F6D3032300E00023F5
:101C0000049E069D002C01D1039A37E0032529028A
:101C1000B868084011D0316C88420BD0B86806997A
:101C20000904BA680A43BA60BA688A43BA60854947
:101C30000840B860C00703D111E00020C0070ED0F3
:101C40000593FFF75BFE0646804CB868800708D412
:101C5000FFF754FE801BA042F7D32B46049E069D3F
:101C600002E0049E069D059B039A002B06D1B868EE
:101C700074490840316C0143B9600023002A04D143
:101C8000019A10680299884310603068C10722D118
:101C9000810728D441072ED4C10634D4C1043BD4D3
:101CA000810506D5032189043A688A43B16A114344
:101CB00039600593410506D5032109053A688A4331
:101CC000F16A11433960810661492ED4420633D44A
:101CD00042043AD448E039680322914372680A43C7
:101CE0003A608107D6D539680C229143B2680A431D
:101CF0003A604107D0D5396830229143F2680A43EF
:101D00003A60C106CAD5032189023A688A4331691B
:101D100011433960C104C3D539684A4A1140726918
:101D20000A433A608105BDD4C3E73A680A40B36903
:101D300013433B604206CBD5032292033B68934397
:101D4000F2691A433A6042040ED53A68414B1A4090
:101D5000346B22433A605A1C944205D12A043B4614
:101D6000483B1C6814431C60020305D53A684023B5
:101D70009A43736B13433B60AB052A0684020DD56F
:101D80003C689C43B56B2C433C609D42069D05D14D
:101D90003C46483C256815432560069D18420BD0FB
:101DA0003B689343F46B23433B60944204D13B462E
:101DB000483B1C6814431C6003050ED57B68032454
:101DC000A343346A23437B60012C06D12B043C4699
:101DD000483C25681D432560069D83040ED57B681D
:101DE0000C24A343746A23437B60042C06D12B0488
:101DF0003C46483C25681D432560069D10420CD09A
:101E00006B037C680C40716C0C437C60994204D17C
:101E1000394648390B6813430B6080010CD578684C
:101E200008490840B16C084378600798814203D1A3
:101E3000483F386810433860059809B0F0BDC04687
:101E400054100240FFFCFFFF0070004089130000A7
:101E5000FFCFFFFFFFFFFF3FF0B583B00D4601212D
:101E6000002800D1A5E001910290534800680724A2
:101E70002040A84214D250490868A0432843086073
:101E80004E4EFFF73BFD07464B4800682040A842F6
:101E900006D0FFF733FDC01BB042F5D9032188E01F
:101EA000029B18688107734E0CD5410703D52103A7
:101EB00032680A4332600F21090232688A43996806
:101EC00011433160C00719D13B4800682040A84247
:101ED00029D939490868A04328430860374FFFF7DC
:101EE0000DFD0646344800682040A8421BD0FFF78D
:101EF00005FD801BB842F5D903215AE05868032834
:101F00002FD8810001A251585A4A8F461D1F000840
:101F1000691F0008731F00087D1F0008114608395B
:101F2000096849052CE0029A10784007514D05D503
:101F3000200329688143D0680843286000F05CF8DA
:101F4000296889093C220A401D4989581F220A40F4
:101F5000D0401F4908601B480068FFF727FD014675
:101F600027E0444A516D0AE011460839096889039F
:101F700006E0114608390968890101E0916D890779
:101F8000019916D51168A143014311600B4FFFF76A
:101F9000B5FC064637480068382101400298406881
:101FA000C000814290D0FFF7A9FC801BB842F1D954
:101FB0000321084603B0F0BD002002408813000052
:101FC0008842000810000020014800687047C046A1
:101FD0000400002010B5FFF7F7FF044600F0E2FD13
:101FE000000B8000034908581F210140CC402046C7
:101FF00010BDC046C842000810B51E4C20688006BF
:10200000400F06D0226838210A401B48082A07D111
:1020100010BD083C20688004410F1848C84010BD1E
:1020200022680A40102A15D1616803220A40032A57
:1020300000D0124861684906490F491CFEF76DF946
:1020400061684904490E48436168490F491CFEF71D
:1020500064F910BD20680840202802D10120C00387
:1020600010BD20680840182801D0002010BD7D2038
:10207000000210BD08100240001BB7000024F4004D
:10208000F0B587B00127002800D1F0E10497059052
:102090000078C007F74E4DD0B068F16803273A4684
:1020A0008A43382101401020484082185042504154
:1020B000082913D0002811D1059842680520000492
:1020C0008242039213D0012001048A4215D0326863
:1020D0008A43326081043068884310E030688003AE
:1020E00028D505984068002824D1049FBFE101202D
:1020F000810432680A43326001043068084330606A
:1021000001204404FFF7FAFB0546039800280ED08F
:10211000306820420ED1FFF7F1FB401B6428F7D94D
:10212000A5E1FFF7EBFB401B642800D99FE1306875
:102130002042F6D10598007880071AD405980078D7
:10214000000746D405980078400700D41AE1B0682B
:1021500038210140202900D088E0F06D800700D4AC
:102160000DE105988068002800D008E100200127D3
:1021700006E1B1683820084010214140F268032789
:102180003A4002235340CA185142514100282ED0F0
:1021900000292CD1306801218C02059BDA68002AC5
:1021A00000D195E00722D20290431A6902433260BF
:1021B0000802316801433160FFF7A0FB0546306833
:1021C000204200D094E0FFF799FB401B0228F6D98B
:1021D0004DE1B06838210140182931D1306E8007B7
:1021E000B0D5059880690028ACD1049F3FE13168E3
:1021F0004905059B03D5D968002900D193E07F21CB
:10220000090272688A435969090211437160002802
:102210000DD10720C002316881431869084330603E
:1022200030688004400FB649C140B6480160B648E6
:102230000068FFF7BBFB002800D17FE7049F16E191
:10224000306E0599896900295CD001210843306608
:10225000FFF754FB0546306E800700D572E7FFF7A5
:102260004DFB401B03270228F5D900E10120039014
:102270000107F06B0840029006D1F06B0843F06351
:10228000F06B0840069006980191A04C2068C005AC
:1022900010D403980702206838432060FFF72EFB14
:1022A00005462068384205D1FFF728FB401B02286D
:1022B000F7D95AE005988468052C36D0012C38D01F
:1022C000F06D03998843F065F06D0421884333E095
:1022D000090288433060FFF711FB05463068204251
:1022E00000D12BE7FFF70AFB401B0228F6D9BEE01E
:1022F0007F2000027168814305984069000208430D
:1023000070601BE7012188433066FFF7F7FA054646
:10231000306E800700D415E7FFF7F0FA401B032763
:102320000228F5D9A3E0049FA1E0F06D0421014348
:10233000F165F06D03990843F065FFF7DFFA054694
:10234000002C09D0724CF06D800711D4FFF7D6FA3B
:10235000401BA042F7D908E06D4CF06D800707D50F
:10236000FFF7CCFA401BA042F7D90020032707E073
:102370000298002803D1F06B01998843F063012093
:10238000002874D00598007880060CD40598006A5F
:1023900000286BD0B16838220A40102A1AD10128CF
:1023A0003FD1049F63E030680121CC05059AD269D2
:1023B0008905002A26D008433060FFF79FFA0546BA
:1023C00030682042E2D1FFF799FA401B0228F7D982
:1023D00003274CE001242206316891433160022832
:1023E0004AD1039260060490FFF788FA05463068E8
:1023F0000499084255D0FFF781FA401B03270228B1
:10240000F5D934E088433060FFF778FA0546306844
:102410002042BBD0FFF772FA401B03270228F6D9EF
:1024200025E0F06803210140059C626A914260D179
:1024300070210140A26A91425DD17F2109020140D1
:10244000E26A1202914258D11F2149040140226BD5
:102450009142049F0BD107214A060240636B9A42C6
:1024600005D149070840A16B884200D10027F8B286
:1024700007B0F0BD00100240F0680327B843F060D9
:10248000F06824490140F1606506FFF737FA044619
:1024900030682842EAD0FFF731FA001B0228F7D94A
:1024A000E5E7F0681C4901400294059C2746243763
:1024B000ADCFA46B084310431902014329433943AC
:1024C0002143F160306803990843306002980007A7
:1024D000F1680143F160FFF711FA0446306804998E
:1024E0000842C3D1FFF70AFA001B03270228F5D9D7
:1024F000BDE7049FBBE7049FB9E7049FB7E7C04669
:102500000024F400040000201000002000700040AF
:1025100088130000FFFFFEEE8C80C1110C4801689B
:1025200002220A430260704703214902024A1368EB
:102530008B430343136070470000014080B500F0F7
:102540001FFD80BD0248016802229143016070476F
:1025500010E000E0B0B58021415C012901D10220EA
:10256000B0BD024680322421516001680B680C68BE
:102570000125AC430C606C07A3430B60002141664E
:102580001170202050600846B0BD7047704770B58C
:1025900004468020205C012801D1022070BD254620
:1025A00080352420686020680668026801239A4309
:1025B00002602B7007225206836893430B438360AB
:1025C000204600F07FFE2068066000202870202151
:1025D000696070BD70B504468020205C012801D17F
:1025E000022070BD2546803524206860206806687A
:1025F000026801239A4302602B7007225207836806
:1026000093430B438360204600F05CFE2068066025
:10261000002028702021696070BD7047704770B538
:10262000002817D0044606468036242070602068B3
:1026300001680122914301600025056045608560C5
:10264000204600F08BF9F5607560B5603570E56681
:10265000284670BD012070BD70470000F0B587B0FE
:102660000268D66920270123DC0206942F34344007
:10267000116805929268202C0CD10C463C401D0735
:1026800015402C1906D0016F002900D126E188479A
:1026900007B0F0BD0297069C0F3434400490054605
:1026A0005C35002C0846039179D08D4F07401907FF
:1026B0004C1C1440E71972D00191F707059906D018
:1026C0001F02074003D00B622F6B1F432F63174677
:1026D0001F40B0070AD5002F08D002200862286BDF
:1026E000009004200099084305992863700707D5D6
:1026F000002F05D004200862286B022707432F63B0
:102700003007029F08D503983840044304D00820BE
:1027100008622C6B04432C630698064208D0980686
:10272000039B184004D006980862286B384328633E
:10273000286B002800D1D1E002980640049E0AD000
:1027400003990140019802400A4304D0316F0029E7
:1027500001D030468847286B2821014030688068C6
:1027600040242040401800D1A4E0304600F07CFE18
:1027700030688168490600D48AE08168A14381609D
:10278000F06F002800D183E056498163FEF796FE82
:10279000002800D1A2E00498C06F816B77E7069211
:1027A00002463240D006049FFC6E27D5012C25D16D
:1027B0001020059906900862886840062CD4688825
:1027C0002B886A88002A00D188E01C1A220400D1D4
:1027D00084E0092252010B6893430B608A68434BE3
:1027E00013408B600298E86200220498C266026778
:1027F0000A68069B9A430A60A1B236E0F00238D517
:1028000098050699084034D018050599086238469D
:10281000FFF704FF07B0F0BDF86F04686668B7B251
:10282000002F5BD02A88974258D26E802268920689
:10283000049E15D42C4A20320C6814400C608A681F
:102840009A438A608A6840239A438A60029AEA62BD
:102850000022F2660A68069B9A430A60FEF7FAFDB8
:1028600068882988081A81B23046FFF78EFE07B0C3
:10287000F0BD300611D5802003990840D905069C8B
:102880000C40201809D0796F002927D00498FEE663
:102890003046FFF7E1FE07B0F0BD500611D430021C
:1028A00014D598070399084010D03846FFF7B5FEB5
:1028B00007B0F0BD3046FFF7CFFE0020286307B019
:1028C000F0BD384600F0E8FD07B0F0BDF00105D5D9
:1028D0000398002802D50498FFF758FE07B0F0BD12
:1028E0002001000451340008DFFEFFFFFEFFFFEF70
:1028F000B0B5002830D00446054680356868002809
:1029000004D100202870204600F040F824206860A0
:10291000206801680125A9430160204600F082FF7C
:10292000012817D0A06A002802D0204600F0EEFC53
:102930000920C00221684A6882434A6088682A22C6
:10294000904388600868012202430A60204600F034
:1029500047FD05462846B0BD0120B0BD80B50068E2
:102960004B49884200D080BD0120800306490A6897
:1029700082430A600520000703214902FEF7E8FDB3
:102980001B20FFF753F880BD4010024070B586B0A1
:1029900000240594049403940294019400683C4933
:1029A000884201D006B070BD0125A8031349CA684A
:1029B0000243CA60CA68024000920098086828432F
:1029C000086008682840009005950494039402204C
:1029D000029003204002019000980520000701A901
:1029E000FEF7BCFE1B26304629462246FFF726F896
:1029F0003046FFF71FF806B070BDC04634100240E5
:102A000070B58823C4580223202C1BD1012400292F
:102A100016D0002A14D001252C038668A64204D1C2
:102A20000469002C01D1CC070ED1064680363478DB
:102A3000012C1C4604D00024C466357001F070F8E7
:102A4000204670BD184670BD284670BD10B50446BE
:102A500000680F49884205D00E4901222046FFF741
:102A6000CFFF10BD0B4800780A28F5D00D2807D1FC
:102A700009480068094900220A54FEF735FBEBE7D4
:102A800005490A68054B9854501C0860E4E7C046A5
:102A900000380140240400202004002020000020F1
:102AA000F0B587B00E460746842039580220202909
:102AB00035D10125002E33D00492002A30D00121D7
:102AC0000C03BA68A24204D13A69002A01D1F20784
:102AD00061D103943C4680342278012A05461FD0F8
:102AE000059322463C4654340025D56011702120C0
:102AF00002925060FEF702FF0690049860802080EA
:102B0000B868039988420ED138690028049605995F
:102B100001D000220492002807D1064605E00546B0
:102B2000284607B0F0BD049505990298057007E0A6
:102B3000307839688862761C05996088401E60800C
:102B40006088002815D000918021002538462A464B
:102B5000069B01F057F8002817D1002EE8D1049AFF
:102B600010880E49084039688862921C04922E46EB
:102B7000E2E700914021002538462A46069B01F0F5
:102B800041F8002803D00325CAE70325C8E7202021
:102B900002994860C4E70D46C2E7C046FF01000045
:102BA0007047FEE7072001030148006808407047AE
:102BB00008100240F0B583B03D480068002818D0E6
:102BC00001F048F97D21CC002146FDF7A6FB054622
:102BD00001F040F92146FDF7A0FB0A463548294699
:102BE00001F03CF93448354901F038F934A001F0DE
:102BF0001BFBFEF71BFB6C488021029100252A4637
:102C0000FEF774FE694C0121019120462A46FEF729
:102C10006DFE0421009120462A46FEF767FE082734
:102C2000204639462A46FEF761FE022620463146F6
:102C30002A46FEF75BFE5C480299FEF789FC2046B7
:102C40000199FEF785FC20460099FEF781FC20469D
:102C50003946FEF77DFC20463146FEF779FC1448E4
:102C60000068002818D001F0F5F87D21CC0021463D
:102C7000FDF753FB054601F0EDF82146FDF74DFB4E
:102C80000A460C48294601F0E9F80E480B4901F0C4
:102C9000E5F80BA001F0C8FA05200007032149025E
:102CA000FEF756FC6748FFF7BAFC03B0F0BDC0461C
:102CB000080000204C4300081E4300085A43000847
:102CC0000D00000028430008F0B587B000240694EA
:102CD0000594049403940294324801680422114339
:102CE000016001681140019101990168202211439E
:102CF0000160016811400191019901680125294392
:102D0000016001682940019101990168082211437D
:102D100001600068104001900198234880273946DF
:102D20002A46FEF7E3FD21480F2100912246FEF7D7
:102D3000DDFD04941E480390E802029002AE1A489A
:102D40003146FEF70BFD049519480390194802908F
:102D500015483146FEF702FD059404940395029749
:102D600011483146FEF7FAFC059404940395009847
:102D700002900E483146FEF7F1FC06252846214612
:102D80002246FEF75BFE2846FEF754FE072528463E
:102D900021462246FEF752FE2846FEF74BFE07B0BC
:102DA000F0BDC0463410024000080050000C005036
:102DB000000021100404000080B5074807490422E0
:102DC000074B036042608160C160FEF79BFD0028F5
:102DD00001D0FEF777FA80BD28040020FF0F000025
:102DE0000030004010B5174800210C22164B01623C
:102DF00041628162E124640218C001604160816027
:102E0000C260016141610838FFF772FD002801D0FE
:102E1000FEF758FA0B480021FFF7DCFB002801D031
:102E2000FEF750FA07480021FFF7B1FB002801D058
:102E3000FEF748FA0348FFF78DFB002801D0FEF7A4
:102E400041FA10BD3804002000380140FEE70000C0
:102E5000F0B583B00E4605463249086800281ED0FA
:102E6000029200F0F7FF7D21CF003946FDF755FAB9
:102E7000044600F0EFFF3946FDF74FFA0A462A48AC
:102E8000214600F0EBFF0020009028A029463246A2
:102E9000029B00F0E3FF30A001F0C6F92149086869
:102EA000012D1DD1002817D000F0D4FF7D21CC00CA
:102EB0002146FDF732FA054600F0CCFF2146FDF72A
:102EC0002CFA0A462A48294600F0C8FF29A000F03B
:102ED000C5FF21A001F0A8F9F0B200F0ABF819E0AD
:102EE000002817D000F0B6FF7D21CC002146FDF769
:102EF00014FA054600F0AEFF2146FDF70EFA0A4629
:102F00000948294600F0AAFF14A000F0A7FF12A06C
:102F100001F08AF9012081021748FDF71EF903B07C
:102F2000F0BDC0460800002010430008696E666FBF
:102F30003A4F6E43666744656275673A54797065C7
:102F40003D25642C50313D25642C50323D25642CA8
:102F500050333D25642E00000D0000007761726E35
:102F60003A504152414D20494E56414C494421006E
:102F70004C4300084F4B0000200000207047704772
:102F8000B0B5401E010E01D00120B0BD054D6860F6
:102F90000024E043032100F0B1FEAC60072028606C
:102FA0002046B0BD10E000E080B5FEF7DFFC80BD3C
:102FB000F0B5A7B018AC3C212046FDF7CEF80026AE
:102FC000179616961596149601A84C21FDF7C5F88C
:102FD00001277802FEF736FDB80726900520400647
:102FE000259078042490102023902296032021908D
:102FF000022520951E973804199009201890204624
:10300000FFF73EF8002813D1179616960720149064
:10301000159514A82946FEF71FFF002808D102962F
:10302000019701A8FEF7BAFD002801D127B0F0BD35
:10303000FEF748F9F0B581B00546744F38680028AE
:1030400017D000F007FF7D21CC002146FDF765F980
:10305000064600F0FFFE2146FDF75FF90A466C4880
:10306000314600F0FBFE6BA001F0DEF86FA001F02E
:10307000DBF8FFF79FFD7D20C4002046FEF756FADF
:10308000012630076A490A6802430A60096801405C
:1030900000910098681E052800D9B3E078440079B3
:1030A00040008744021F3C5A78943868002815D0A5
:1030B00000F0D0FE2146FDF730F9054600F0CAFECB
:1030C0002146FDF72AF90A465148294600F0C6FE76
:1030D00072A001F0A9F855A001F0A6F80120FEF7B2
:1030E000E1F88FE03868002815D000F0B3FE2146E3
:1030F000FDF713F9054600F0ADFE2146FDF70DF989
:103100000A464348294600F0A9FE634801F08CF8BE
:1031100046A001F089F80220FEF7C4F872E0386892
:10312000002815D000F096FE2146FDF7F6F805467A
:1031300000F090FE2146FDF7F0F80A463448294693
:1031400000F08CFE4EA001F06FF838A001F06CF892
:1031500000200221FEF704FD54E03868002815D055
:1031600000F078FE2146FDF7D8F8054600F072FE23
:103170002146FDF7D2F80A462548294600F06EFEA2
:1031800039A001F051F829A001F04EF8B003022156
:10319000FEF7E6FC36E03868002815D000F05AFE4D
:1031A0002146FDF7BAF8054600F054FE2146FDF72A
:1031B000B4F80A461648294600F050FE24A001F053
:1031C00033F81AA001F030F8FEF7BCFC1AE03868BA
:1031D000002815D000F03EFE2146FDF79EF805467A
:1031E00000F038FE2146FDF798F80A4608482946BF
:1031F00000F034FE0FA001F017F80CA001F014F855
:10320000FEF76EFCFEF762F801B0F0BD080000208A
:1032100010430008656E746572206C6F7720706FC4
:10322000776572206D6F6465210D00000D00000050
:103230003C100240656E746572204C505F534855D7
:1032400054444F574E206D6F6465210D00000000FF
:10325000656E746572204C505F5354414E44425920
:10326000206D6F6465210D00656E746572204C5091
:103270005F53544F5031206D6F6465210D00000085
:10328000656E746572204C505F53544F5030206D02
:103290006F6465210D00000031430008656E7465A0
:1032A00072204C505F534C454550206D6F64652132
:1032B0000D0000000120C006014908607047C046AB
:1032C00008ED00E0F0B581B004466834416E002995
:1032D00013D0006885688068400F0A4E315C0A4F41
:1032E000385CC000FDF719F860802801400F315CA0
:1032F000385CC000FDF711F801E0012060802080FB
:1033000001B0F0BD0843000800430008B0B5816A71
:10331000CA070CD18A0714D44A071CD40A0724D43C
:10332000CA062CD48A0634D44A063CD44CE0012286
:10333000520403685C689443C26A22435A608A0755
:10334000EAD50122120403685C689443026B2243AD
:103350005A604A07E2D50122920403685C689443EC
:10336000426B22435A600A07DAD50122D20303686E
:103370005C689443826B22435A60CA06D2D501220C
:10338000120303689C689443C26B22439A608A06C6
:10339000CAD50122520303689C689443026C2243FD
:1033A0009A604A0610D501221305026854689C43AE
:1033B000456C2C4354609D4206D103235B05546841
:1033C0009C43836C23435360090607D50121C9043C
:1033D000026853688B43C06C18435060B0BD000056
:1033E00070B582B005468C2000242C50FEF786FA7A
:1033F00006462868006800070CD514480090012094
:10340000410500222846334600F0FCFB002801D08D
:10341000032417E02868006840070CD50B4800908B
:103420000120810500222846334600F0EBFB0028EE
:1034300001D0032406E028468030202141608160CD
:103440000470EC66204602B070BDC046FFFFFF016D
:1034500080B5806A0146563100220A8156214252C7
:10346000FFF7FAF880BD000009214A0101680B68E6
:1034700093430B608A68EA4B13408B60C26E012A4B
:1034800003D10A6810239A430A60882120224250FF
:1034900000210167C166704780B501680A68402352
:1034A0009A430A6084212022425000214167FFF79D
:1034B00077FB80BDB0B504466020225A8820215891
:1034C000206822290ED121465C31436A1A40A36D3F
:1034D0001A804A88521E4A809A1CA2654A88002A8D
:1034E00005D0B0BD816908220A438261B0BD0922BE
:1034F0005201036893430360826801239A43826008
:103500002022CA6200252567E26E012A09D10268DD
:1035100010239A43026009882046FFF736F8E566D3
:10352000B0BD2046FFF792FAE566B0BDF0B587B0B2
:1035300006466020335A3168C8690C688D68882255
:10354000B258222A00D087E00695029405933446AB
:103550005C342027A189049100296AD0384068D0C2
:1035600001210698084006900391090202980091F3
:103570000840029001973068416A059A1140B26D87
:1035800011806188491E6180911CB165C569690718
:103590002AD00299002908D02946039A114004D064
:1035A000039A0262216B114321630221069A002AC9
:1035B00007D02A460A4004D00162226B0423134339
:1035C0002363069A002A07D004222B46134003D017
:1035D0000262206B08432063206B002804D0304631
:1035E000FFF73AF800202063608800281CD130687B
:1035F0000168009A914301608168894A11408160A5
:10360000E76200273767F16E012908D101681022AF
:103610009143016021883046FEF7B7FF02E0304653
:10362000FFF714FAF766019F0498002801D03D4087
:10363000A1D16088002813D0A189884210D278488F
:10364000401C31688A6802408A6006483067086812
:103650003843086007B0F0BD8869082202438A61D8
:1036600007B0F0BDB5340008B0B504466020225A5A
:1036700088202058216822280FD120465C30496AD2
:103680001140A26D11704188491E4180A16D491CF5
:10369000A1654188002905D0B0BD88690822024390
:1036A0008A61B0BD09214A0121680B6893430B6010
:1036B0008A6801239A438A602022C2620025256716
:1036C000E26E012A09D10A6810239A430A60018830
:1036D0002046FEF75AFFE566B0BD2046FFF7B6F973
:1036E000E566B0BDF0B587B004466020235A216876
:1036F000C8690D688E688822A258222A00D089E005
:1037000006960295059326465C362027B1890491DA
:1037100000296CD038406AD00121069808400690F4
:1037200003910902029800910840029001972068D5
:10373000406A05990840A16D08707088401E70802D
:10374000A06D401CA0652068C56969072AD0029950
:10375000002908D02946039A114004D0039A026236
:10376000316B114331630221069A002A07D02A46A1
:103770000A4004D00162326B042313433363069A78
:10378000002A07D004222B46134003D00262306B7C
:1037900008433063306B002804D02046FEF75CFFFE
:1037A00000203063708800281CD120680168009ACE
:1037B0009143016081681A4A11408160F7620027D5
:1037C0002767E16E012908D1016810229143016049
:1037D00031882046FEF7D9FE02E02046FFF736F991
:1037E000E766019F0498002801D03D409FD1708872
:1037F000002813D0B189884210D20948401C2168A2
:103800008A6802408A60FE4820670868384308607A
:1038100007B0F0BD8869082202438A6107B0F0BD95
:10382000FEFFFFEFF0B585B0044603681868A449B1
:103830000140A0682269024365691543E0690543B8
:10384000626E2A430A431A60032631035A688A4388
:10385000E16811435960012291021943A769994D0A
:10386000A942049201D13D4601E0256A3D439F688B
:10387000954A3A402A439A60DA6A0F25AA43656A54
:103880001543DD620025914A93420DDC944A934230
:1038900018DC964A93422AD0954A934200D0B5E06C
:1038A000944A1268920828E0894A934211DC8B4AB4
:1038B00093421FD0834A934200D0A7E08D4A1268FA
:1038C00092091AE0874A93421BD0874A934218D044
:1038D0009CE0804A934214D07F4A934200D095E006
:1038E000844A12689207120F83A39D5809E0814A07
:1038F000126802E07F4A1268120A0C2313407EA26B
:10390000D55827466837804B6E4A914211D1082D11
:1039100000D976E00022C0467D442D796D00AF4489
:1039200004703E70347070703C001546FEF752FB18
:103930002EE00499C903884213D1082D00D96DE007
:103940000026C0467D442D796D00AF4404676F6743
:103950006C6767678900FEF73DFB0346002B67D164
:1039600081E0082D00D980E00026C0467D442D79F5
:103970006D00AF44047A827A7F7A7A7A9800FEF7F3
:1039800029FB0346002B7AD190E01546FEF734FB65
:103990002A460346002B05D189E00120C303002BF2
:1039A00000D184E001920397606A400057490D5AA4
:1039B000029318462946FCF7B0FC67687E43B04284
:1039C00026D33903884226D80026029831462A4653
:1039D0003346FCF78BFB020E0902891800027A08B5
:1039E000801871413A463346FCF780FB484941183C
:1039F000484A9142049A039F59D82168C860019AA5
:103A000055E000230122002BCCD150E0102578E7AF
:103A1000049A039F4BE0049A039F48E00023012689
:103A2000002B05D11FE0FEF7E7FA0346002B1AD062
:103A3000606A40003549095A1846FCF76EFC4000A0
:103A400061684A081018FCF768FC33490140049A81
:103A50002DD00007400F08432168C860324626E099
:103A60000B46002BE4D1324621E000230126002B37
:103A700005D11BE0FEF7C0FA0346002B16D0606AA2
:103A800040002249095A1846FCF747FC61684A0879
:103A90001018FCF742FC80B21028049A07D3216862
:103AA000C860324603E00B46002BE8D132461B4883
:103AB0003860002020676067104605B0F0BDC04642
:103AC000F369FFCF00840040FFF4FF11FF7F004047
:103AD000FF370140003C01400038014000800040B9
:103AE000FF4B0040004C00400050004000440040AC
:103AF0000048004054100240000000000400000094
:103B000002000000080000000024F400E842000861
:103B100000FDFFFFFFFC0F00F0FF000001000100AF
:103B2000F0B584B05C23C252816500260667054665
:103B30005C356A80876803468033002F00920397C4
:103B40000BD001210C07A7420CD009038F420ED1E4
:103B50000169002904D126490CE00169002908D136
:103B6000FF2107E00169002903D03F2102E0AE8078
:103B700001E07F21A9800296DE602221996007681A
:103B8000BC6801210C43BC600A0201920C034A0785
:103B9000466E964203D1AA89009DAA420DD9039987
:103BA000A14202D1016900291ED01549029A019C47
:103BB0001A70016720343A4610E0039AA24202D1FB
:103BC0000269002A12D00C4C029D019E3A4608322E
:103BD0001D7004673868304338600C071068204354
:103BE0001060002004B0F0BD0449DFE7014CEBE7B2
:103BF000FF0100002D350008E5360008B534000847
:103C000069360008F0B585B004930F460446006895
:103C1000C0690840401A414241410020914238D1D8
:103C2000164602902046803001900A9D01200090A7
:103C3000C002039007E02068C0693840C01B4142C1
:103C40004141B14224D1681CF5D0FDF757FE2168EF
:103C50000A68002D1FD0049BC01AA8421BD8500729
:103C6000E9D5C869039A1042E5D0039808620D208F
:103C700040010A6882430A608868009A904388601D
:103C80002020019A5060906000211170D06010E0F7
:103C9000029805B0F0BD0D20400182430A6088689B
:103CA000009A904388602020019A50600021117092
:103CB0009060032005B0F0BD80B55648FEF7CEFCFD
:103CC00080BDC046002809D41F2108400121814041
:103CD00003480160BFF34F8FBFF36F8F7047C0463B
:103CE00080E100E0002805D41F2108400121814027
:103CF000014801607047C04600E100E0002805D49B
:103D00000322034693430C4A9A1806E00F2202400E
:103D1000083A03239A43074BD2188007C00E890143
:103D2000C9B28140FF238340106898430843106064
:103D30007047C0461CED00E000E400E080B582B0B2
:103D40000190344801A901226423FEF7A9FE0198DD
:103D500002B080BD82B0FDF713FEFFF729F9FEF730
:103D6000B3FFFFF73FF8FFF727F828480068284916
:103D700001602848284901242246FEF741FE2748D1
:103D8000802101942246FDF7B1FD0024264603E080
:103D90002E466420FDF7CAFB751C2646F9D2204F3B
:103DA0006F4338460199C8411E498842F0D81748E8
:103DB000FDF7D4FD1C48006800281AD000F04AF82E
:103DC0007D21CE003146FCF7A8FA009000F042F8C1
:103DD0003146FCF7A2FA0A461448009900F03EF872
:103DE000FDF78CFD014612A000F038F816A000F097
:103DF0001BFA0220C741154887422E46C9D80E211A
:103E00001348FDF76BFD2646C3E7C0462804002093
:103E1000CCCC00003804002024040020000800500E
:103E2000CDCCCCCC999999190800002010430008FA
:103E300044454255475F31485A5F54524143453AE1
:103E400025640D0A000000000D000000CCCCCC0C55
:103E5000000C005080B5FDF751FD80BD0FB410B5CA
:103E600003A9044B044A029800F036F810BC08BCC1
:103E700004B018473D3D0008000000202021020C3E
:103E800001D010211046020A01D01046083902095B
:103E900001D01046091F820801D01046891E420831
:103EA00001D0881E7047081A704702E008C8121F28
:103EB00008C1002AFAD170477047002001E001C113
:103EC000121F002AFBD1704730380A2801D2012086
:103ED0007047002070470000FFB58FB005460026F0
:103EE00006E025280AD0129A119990476D1C761C7D
:103EF00028780028F5D1304613B0F0BD0024029494
:103F00000121B54A009400E004436D1C2B7808465B
:103F1000203B98401042F7D128782A280ED0022260
:103F2000287801463039092916D802990A235943BD
:103F30003039401814436D1C0290F1E7109802C804
:103F400002911090002904DA012040030443484202
:103F50000290022004436D1C28782E2817D10420DB
:103F6000044368786D1C2A280CD110986D1C02C877
:103F7000009110900BE000990A225143303940180B
:103F80006D1C00902878014630390929F3D928782A
:103F90006C2810D006DC4C281AD068280ED06A286D
:103FA00017D104E0742813D07A2812D110E0012030
:103FB000400504430CE00121090501E00321090546
:103FC0000C436978814203D10120000524186D1C3F
:103FD0006D1C2878692874D006DC00288BD06328F3
:103FE00027D0642806D16CE06E2808D073282CD026
:103FF000752878D0129A11999047761C5FE060027C
:10400000400F022809D003280DD004281098016819
:104010000DD00E60001D109051E01098F21701684D
:104020000E604A60F6E7109801680E80F2E70E70A5
:10403000F0E710986A4601781173001D1090002077
:10404000507303A80190012005E0109802C8019167
:1040500010900020C04361070CD5002700E07F1CB2
:1040600000998F420FDA8742F9DB0199C95D002977
:10407000F5D108E0002700E07F1C8742FCDB0199B6
:10408000C95D0029F8D102982146C01B0290129BFD
:10409000119A00F0B3F88019C61907E00198019948
:1040A0000078491C0191129A119990477F1EF5D210
:1040B0002146129B119A029800F090F886196D1C07
:1040C00016E70A200190109901C910916102490F69
:1040D000032900D100B2042900D140B2002803DA3C
:1040E00040422D2103E00DE0210504D52B216A4635
:1040F0001173012103E0E10711D02021F7E70CAF94
:104100000C9114E00A200190109901C910916102EC
:10411000490F032900D180B2042900D1C0B2002187
:10412000EDE70199FCF7F9F830317F1E397000286E
:10413000F7D104A8C01B20300190600704D50120EE
:1041400000048443009801E0012000900199884216
:1041500001DD401A00E00020411800900C98091879
:104160000298401A0290E00306D42146129B119A4D
:10417000029800F043F8861900200D9008E003A98A
:10418000085C129A119990470D98401C761C0D906E
:104190000C998842F3DBE0030CD52146129B119A5F
:1041A000029800F02BF8861904E0129A3020119939
:1041B0009047761C0099481E00900029F5DC05E028
:1041C0003878129A7F1C11999047761C0199481EE5
:1041D00001900029F4DC6BE709280100F8B50446DA
:1041E00000251E461746880404D405E039462020E1
:1041F000B0476D1C641EF9D52846F8BDFFB50446CE
:10420000002581B01E46C80301D5302700E02027D5
:10421000880404D505E038460399B0476D1C641E38
:10422000F9D5284605B0F0BD10B5044601E0FFF70A
:1042300085FD2078641C03490028F8D10A20FFF787
:104240007DFD10BD00000020DDDDDDDDDCBBBBDD64
:10425000DDDDDDDDDDDDDDDD988888888888888826
:104260007777777777888888855555566666666646
:104270006666666666688888833333322222222225
:10428000222222222228888D000000000000000047
:10429000000000000000000000000000000000001E
:1042A000000000000000000001000000020000000B
:1042B00003000000040000000600000007000000EA
:1042C00008000000090000000000000000000000DD
:1042D00000000000000000000100000002000000DB
:1042E00003000000040000000100020004000600BA
:1042F00008000A000C0010002000400080000001AF
:104300000101010307010000080402040801010182
:104310005B493A2025642E253033645D2000656EAC
:104320007465722025730A00657869742025730A04
:1043300000656E746572204C505F444545505F5374
:104340004C454550206D6F6465210D005B443A205B
:1043500025642E253033645D20004C6F77506F77D5
:10436000657250726550726F6300457869744C6F66
:1043700077506F7765724D6F64650000A043000849
:104380000000002020000000AA3E0008C0430008F2
:1043900020000020B0080000BA3E00080000000025
:1043A000000000000024F4000100000001000000F3
:1043B0000400000000000000FFFFFFFF01000000FC
:04000005080000BD32
:00000001FF
